:100000000C94E8040C9410050C9410050C94100545
:100010000C9410050C9410050C9410050C9410050C
:100020000C9410050C9410050C94571F0C94C61FCB
:100030000C9410050C9410050C9410050C941005EC
:100040000C9410050C9486230C9410050C94100548
:100050000C9410050C9410050C9410050C940D1FB5
:100060000C9410050C9410050C9410050C941005BC
:100070000C9410050C9410050C9410050C941005AC
:100080000C9417230C9410050C9410050C94100577
:100090000C94F8210C9410050C9410050C94100588
:1000A0000C9410050C9410050C941005AED580A886
:1000B0003FD300408D142002A0C0DA12817FD9F115
:1000C000DB40A4A6AF00030C0F30333C3FC0C3CCD1
:1000D000CFF0F3FCFF00000A0F205F0000000000DB
:1000E0000000000000000000000000000000000010
:1000F000000000FEFE0000000000000000191900D2
:1001000000000000001E1E00001E1E000000000077
:10011000000000000000000030FEFE3030FEFE3027
:100120000000031F1F03031F1F03000070F8D8FE09
:100130009898000000000C18187F191F0F00001C71
:10014000B6A2F6CC60602030000101000E1B111B2E
:100150000E00000000DC7EE6C6860C808000070FE3
:100160001C18191F1E1F13000000001E1E00000097
:100170000000000000000000000000000000E0FCA3
:100180001E02000000000000073F78400000000051
:1001900000021EFCE000000000000040783F070065
:1001A00000000000487830FE307848000000000071
:1001B0000001000000000000808080F0F08080805E
:1001C00000000101010F0F0101010000000000000B
:1001D0000000000000000000407C3C000000000027
:1001E0000000000000000000000000030303030300
:1001F00000000000000000000000000000000000FF
:10020000001C1C0000000000000000C0F03C0E02BA
:10021000000020381E07010000000000F0FC0EC6A0
:10022000C60EFCF80000030F1C18181C0F07000076
:10023000000C06FEFE00000000001818181F1F1812
:10024000181800000C06060686C67C380000181C2C
:100250001E1B1918181800000C06C6C6C6C6FC38A6
:1002600000000C18181818190F0F000080C0701823
:100270000EFEFE00000003030303031F1F03000024
:10028000FE7E666666E6C68000000C181818181C0C
:100290000F070000F0FCCE6666E6CC800000070F7A
:1002A0001C18181C0F07000006060606E6FE3E0E88
:1002B000000000101C0F03000000000038FCC6C640
:1002C000C6C6FC3800000F0F181818180F0F0000D2
:1002D00078FCCE8686CEFCF80000000C1919191C9B
:1002E0000F030000000000E0E0000000000000003C
:1002F000001C1C0000000000000000E0E000000006
:1003000000000000407C3C00000000008080C040F5
:10031000606020300000010103020606040C0000AA
:1003200060606060606060600000060606060606A9
:10033000060600003020606040C0808000000C0491
:1003400006060203010100000C0686C6667E1C003C
:10035000000000001B1B0000000000E0F0389CCCF7
:10036000CCDCF8F000071F3873676666772700005B
:1003700000C0FC3E3EFCC0000000181F0F03030F2E
:100380001F180000FEFEC6C6C6C6FC3C00001F1FAC
:10039000181818181F0F0000F0FC0C060606060CB3
:1003A0000000030F0C181818180C0000FEFE0606BB
:1003B000060CFCF000001F1F1818180C0F0300009B
:1003C000FEFEC6C6C6C6C60600001F1F18181818AF
:1003D00018180000FEFEC6C6C6C6C60600001F1FCF
:1003E0000000000000000000F0FC0C068686868CF1
:1003F0000000030F0C1819191F0F0000FEFEC0C0EB
:10040000C0C0FEFE00001F1F000000001F1F0000F4
:10041000000606FEFE06060000000018181F1F1842
:1004200018000000000000060606FEFE00000C1882
:10043000181818180F0F0000FEFEE0F0FC0E060260
:1004400000001F1F0000030F1E180000FEFE00002A
:100450000000000000001F1F1818181818180000CE
:10046000FEFE3EF0F03EFEFE00001F1F00010100F8
:100470001F1F0000FEFE1EF0C000FEFE00001F1F3A
:100480000000031E1F1F0000F0FC0E06060EFCF00D
:100490000000030F1C18181C0F030000FEFEC6C648
:1004A000C6C67C7C00001F1F00000000000000008A
:1004B000F0FC0E06060EFCF00000030F1C18183CA2
:1004C0006F070000FEFEC6C6C6C6FC3C00001F1F2C
:1004D000000001031F1E1000387CE6C6C6C68C0053
:1004E00000000C18181818190F0F0000060606FE59
:1004F000FE06060600000000001F1F0000000000AE
:10050000FEFE00000000FEFE0000070F1C18181C75
:100510000F07000006FEFC0000FCFE0600000000C5
:100520001F1F1F1F0000001EFEE000F0F000E0FE95
:100530001E001F1F1E01011E1F1F0000020E3EF89D
:10054000F83E0E020000101C1F03031F1C100002C7
:100550000E3E78E0E0783E0E02000000001F1F0013
:1005600000000000060686C6F67E1E0E00001C1E59
:100570001F1B1818181800000000FEFE02020000E1
:10058000000000007F7F404000000000020E38E0C5
:1005900080000000000000000000030E3820000072
:1005A000000202FEFE00000000000040407F7F00CD
:1005B00000000010181C0E060E1C18100000000091
:1005C000000000000000000000000000000000002B
:1005D0000040404040404040404040000001030691
:1005E0000400000000000000000000000000000007
:1005F000006030B0B0B0F0E000000E1F1B19190D04
:100600001F1F0000FEFE60303070E0C000001F1FA2
:100610000C18181C0F070000C0E07030303030603C
:100620000000070F1C181818180C0000C0E07030EC
:100630003060FEFE0000070F1C18180C1F1F000082
:10064000C0E0B0B0B0B0E0C00000070F1D1919192C
:10065000190D00003030FCFE363636000000000078
:100660001F1F000000000000C0E070303060F0F09C
:10067000000003376E6C6C667F3F0000FEFE60304A
:100680003030F0E000001F1F000000001F1F0000BE
:10069000003030F7F700000000001818181F1F186E
:1006A00018180000003030F7F7000000000060600C
:1006B000607F3F0000000000FEFE80E07030100010
:1006C00000001F1F0103071E181000000606FEFE93
:1006D00000000000000000000F1F181818000000A4
:1006E000F0F030F0E030F0E000001F1F001F1F00AE
:1006F0001F1F0000F0F060303030F0E000001F1FDE
:10070000000000001F1F0000C0E070303070E0C02B
:100710000000070F1C18181C0F070000F0F06030D5
:100720003070E0C000007F7F060C0C0E0703000055
:10073000C0E070303060F0F0000003070E0C0C06D3
:100740007F7F000000F0F060303030300000001F8C
:100750001F00000000000000E0F0B0B0B0B030605A
:1007600000000C191919191B1F0E00003030FCFC79
:1007700030303000000000000F1F18181800000073
:10078000F0F000000000F0F000000F1F1818180C27
:100790001F1F000030F0E00000E0F030000000011A
:1007A0000F1E1E0F01000070F00000C0C00000F01E
:1007B0007000071F1E03031E1F0700001030F0C04B
:1007C000C0F03010000010181E07071E181000009F
:1007D00010F0F08000F0F03000000060637F1F0F29
:1007E0000100000030303030B0F070300000181CD4
:1007F0001E1B191818180000000000FCFE02020061
:1008000000000001013E7E4040000000000000FEAC
:10081000FE00000000000000007F7F0000000000DC
:10082000000202FEFC00000000000040407E3E018D
:100830000100000080C0C0C0808080C000000100B6
:1008400000000101010000AC00198040004C6F6104
:10085000642064617461005265736574206461741E
:10086000610053746F726520646174610042525F6D
:10087000504F530042525F504F53005054524E5FFE
:100880004E005054524E5F4E005245535256340063
:100890005245535256340052455352563300524536
:1008A000535256330052455352563200524553521A
:1008B000563200524553525631005245535256312A
:1008C0000054425F4C454E0054425F4C454E00532D
:1008D000746174757300080B0002020200000904C1
:1008E000000001020200000524001001052401019E
:1008F00001042402060524060001070581031000F7
:100900004009040100020A0000000705020240003D
:1009100000070583024000000403090412010002DD
:10092000EF020140412337800001010203014172BF
:100930006475696E6F204C4C430041726475696E3A
:100940006F204D6963726F00506974746120526545
:100950006164790000000000240027002A002D00B7
:10096000300000000000250028002B002E00310080
:100970000404040404030405020202020403020244
:100980000202060606060606040402020204040425
:10099000080201104080401020408040800802047E
:1009A00001804020100201108010204040200000F3
:1009B000000200090F0000030401000C0000000009
:1009C00000000000000000000000000000002824DB
:1009D00011241FBECFEFDAE0DEBFCDBF14E0A0E0F0
:1009E000B1E0E0E0F8E602C005900D92AA34B1074C
:1009F000D9F726E0AAE4B4E001C01D92AF3EB207E9
:100A0000E1F714E0C8EED4E004C02197FE010E9493
:100A10005930C73ED107C9F70E9497240C94FE3382
:100A20000C940000FC01DB018C912081318138277E
:100A300098E0A901220F331F57FD05C09150C9F757
:100A4000318320830895B1E22B27B0E13B27F6CF15
:100A50002F923F924F925F926F927F928F929F92CE
:100A6000AF92BF92CF92DF92EF92FF920F931F93BC
:100A7000CF93DF9300D000D0CDB7DEB7FC017180FB
:100A800017140CF0C7C12115310509F4C3C11901B0
:100A90006A017B019C838B832EEA37E346E856E4A8
:100AA000CB01B6010E9452324B015C0120E030E0E4
:100AB00040E85FE30E94EE3087FDACC18FEF9FEF0F
:100AC000DC01EB81FC8184879587A687B787F2E0FC
:100AD00020E030E040E852E4C501B4017F1609F49B
:100AE000DAC00E944D3201E010E0181674F020E0E8
:100AF00030E040E051E4C501B4010E944D3202E013
:100B000010E0181614F003E010E024E08FEF90E0FE
:100B1000721611F08FEF9FEF4C01B12CA12CC80180
:100B2000880F991FFC01E25BFE4FFA83E983E9819C
:100B3000FA8161917191FA83E98390E080E00E94EB
:100B40009B31A70196010E9452329B01AC0160E0EB
:100B500074E284E79BE40E94F33020E030E040E858
:100B60005FE30E9481300E946C312B013C01A501A2
:100B700094010E941830211530444105510508F0B8
:100B800075C0EB81FC814482558266827782408603
:100B900051866286738613830283F894EB81FC810D
:100BA000C08AD18AE28AF38A358A248A178A168A09
:100BB00010828181813009F0D5C080918100887FC9
:100BC0009281892B80938100EB81FC8180859185C6
:100BD000A285B3852181233009F4DDC0243009F4D6
:100BE000F9C02130F1F4AC01BD010097F1E0AF078D
:100BF000B10520F04FEF5FEF60E070E050938900A7
:100C000040938800841B950BA60BB70BEB81FC81EE
:100C100080879187A287B38780916F0082608093DD
:100C20006F00EB81FC8180859185A285B385892B3E
:100C30008A2B8B2B11F481E08083789481E00F90D4
:100C40000F900F900F90DF91CF911F910F91FF9018
:100C5000EF90DF90CF90BF90AF909F908F907F905C
:100C60006F905F904F903F902F9008950F5F1F4FB0
:100C70000630110509F05BCFEB81FC81448255827F
:100C800066827782408651866286738685E090E030
:100C90009383828382CF0E944D3201E010E01816C8
:100CA000D4F020E030E040E051E4C501B4010E94FE
:100CB0004D3202E010E0181674F020E030E040E021
:100CC00050E4C501B4010E944D3203E010E0181653
:100CD00014F004E010E0C801880F991F9C01225C09
:100CE0003E4F5901F501619171915F0190E080E003
:100CF0000E949B31A70196010E9452329B01AC01D8
:100D000060E074E284E79BE40E94F33020E030E08E
:100D100040E85FE30E9481300E946C316115F0EC85
:100D20007F07FFE38F07910558F4EB81FC81648313
:100D300075838683978360877187828793872BCF9C
:100D40000F5F1F4F0830110569F6EB81FC8164834A
:100D5000758386839783608771878287938787E00F
:100D600090E096CF833051F480919100887FEB81A1
:100D7000FC819281892B8093910026CF843009F0E9
:100D800023CF8091C100887FEB81FC819281892BE8
:100D90008093C10019CFAC01BD010097F1E0AF070E
:100DA000B10520F04FEF5FEF60E070E050939900E5
:100DB00040939800841B950BA60BB70BEB81FC812D
:100DC00080879187A287B38780917100826080932A
:100DD000710027CF8F3F9105A105B10529F020F0C3
:100DE0008FEF90E0A0E0B0E08093CF00EB81FC813A
:100DF0004085518562857385481B590B6A0B7B0BB7
:100E000040875187628773878091720080648093E6
:100E1000720007CF80E013CFCF92DF92EF92FF9264
:100E2000DC01909134069630D8F486E0989FF0016A
:100E30001124E05FF94FE0902B01F0902C01F1823A
:100E4000E082C0903506D0903606E0903706F090EC
:100E50003806C282D382E482F5829F5F9093340683
:100E600083E080932A01B0934406A09343067093D5
:100E700042066093410620933D0630933E06409320
:100E80003F065093400687EE93E0A0E0B0E0821B5F
:100E9000930BA40BB50B8093390690933A06A0935D
:100EA0003B06B0933C06FB0180819181A281B38116
:100EB000821B930BA40BB50B8093350690933606DB
:100EC000A0933706B09338068DE592E190932C01FC
:100ED00080932B0110924706109246061092450609
:100EE000FF90EF90DF90CF900895FC018091BF05B7
:100EF000882311F13FB7F89482E08093E9002091B4
:100F0000F200822F90E01816190614F481E090E0A8
:100F1000882339F0289A44E64093BE054091F100B9
:100F20004083222339F02091F200211103C02BE6E7
:100F30002093E8003FBF08958FEF9FEF08952FB7EC
:100F4000F89483E08093E9009091E800892F807203
:100F500095FF04C09091F20080E4891B2FBF089593
:100F60008091B60581110DC082E08093B20584E0C6
:100F70008093B3051092B5051092B40581E080937B
:100F8000B60582EB95E00895282F30E0F901E2558F
:100F9000F64F9491F901E157F64F84912059364F5D
:100FA000F9012491222309F430C09923E9F09150EA
:100FB0009F30D0F4E92FF0E0E052F84F0C94593014
:100FC0000E081208EF0706080A08F407F407F407EA
:100FD00015081B081F0823082908F4072D089091FD
:100FE00080009F7790938000E22FF0E0EE0FFF1FCC
:100FF000EE59F64FA591B4919FB7F894EC91611119
:1010000032C080958E238C939FBF0895909180006D
:101010009F7DE8CF90918000977FE4CF94B59F7734
:1010200094BDE2CF94B59F7DFBCF909190009F77C8
:1010300090939000D9CF909190009F7DF9CF90919F
:101040009000977FF5CF9091C0009F779093C0005C
:10105000CBCF9091C0009F7DF9CF9091C200977F38
:101060009093C200C1CF8E2BCECFCF93DF9390E071
:10107000FC01E157F64F24918059964FFC01849171
:101080008823D1F090E0880F991FFC01EC5AF64FAD
:10109000A591B491FC01EE59F64FC591D49161111F
:1010A0000EC09FB7F8948C91E22FE0958E238C931D
:1010B0002881E223E8839FBFDF91CF9108958FB706
:1010C000F894EC91E22BEC938FBFF6CF3FB7F894F6
:1010D0008091AE059091AF05A091B005B091B1059A
:1010E00026B5A89B05C02F3F19F00196A11DB11D83
:1010F0003FBFBA2FA92F982F8827BC01CD01620FBF
:10110000711D811D911D42E0660F771F881F991F79
:101110004A95D1F708958F929F92AF92BF92CF9246
:10112000DF92EF92FF924B015C010E9466086B0117
:101130007C010E9466086C197D098E099F09683E32
:10114000734081059105A8F321E0821A9108A10856
:10115000B10888EEC80E83E0D81EE11CF11C811492
:101160009104A104B10429F7FF90EF90DF90CF9094
:10117000BF90AF909F908F90089568EE73E080E0ED
:1011800090E00C948B0840910D0550910E05209134
:101190000B0530910C0542175307B4F49091E80009
:1011A0009570E1F39091E80092FD19C08093F100F1
:1011B00080910D0590910E0501968F739927892BCB
:1011C00019F48EEF8093E80080910D0590910E0543
:1011D000019690930E0580930D0581E0089580E0BF
:1011E0000895DF92EF92FF920F931F93CF93DF93B7
:1011F000D82E8A01EB017B01E40EF51ECE15DF052A
:1012000059F0D7FE12C0FE0184910E94C3082196B6
:101210008111F4CF0FEF1FEFC801DF91CF911F9124
:101220000F91FF90EF90DF9008958881EECF0F939C
:101230001F93CF93DF931F92CDB7DEB782E08983F0
:1012400042E450E066ED78E080E80E94F1080E94F8
:10125000B007DC0112960D911C910115110589F062
:10126000D801ED91FC910280F381E02DBE016F5F0A
:101270007F4FC801099597FD04C0F80100851185CD
:10128000ECCF89810F90DF91CF911F910F9108953D
:10129000615030F02091F100FC0120830196F8CFDD
:1012A000289A84E68093BE050895DC01ED91FC91B7
:1012B0000190F081E02D0994AF92BF92CF92DF921E
:1012C000EF92FF920F931F93CF93DF936C017B01FB
:1012D0008B01040F151FEB015E01AE18BF08C0178C
:1012E000D10759F06991D601ED91FC910190F081FF
:1012F000E02DC6010995892B79F7C501DF91CF91C2
:101300001F910F91FF90EF90DF90CF90BF90AF9023
:1013100008958F929F92AF92BF92CF92DF92EF92F9
:10132000FF920F931F93CF93DF936C017B018A0190
:1013300080911901882309F45CC08091BF0588233E
:1013400009F457C08091110580FF05C08091E0002D
:1013500082608093E000E801B12C8AEFA82E93E030
:10136000892E2AE3922E209711F4BB20D9F10E94F6
:101370009F0781110AC0AA94AA20D9F161E070E008
:1013800080E090E00E948B08EECF8C171D0611F0D4
:101390000CF08C2F9FB7F8948092E9002091E80020
:1013A00025FD02C09FBFDFCF282F30E0C21BD30B2B
:1013B000F701815020F041914093F100FACFE20E05
:1013C000F31EBB2021F09092E800B12CEBCF80916E
:1013D000E80085FDE7CF9092E800BB24B394209706
:1013E00009F3F3CF5D9A84E6809310051016110679
:1013F0003CF081E090E0F6019383828310E000E00E
:10140000C801DF91CF911F910F91FF90EF90DF9076
:10141000CF90BF90AF909F908F900895CF93DF9320
:101420001F92CDB7DEB76983DC01ED91FC9102809C
:10143000F381E02D41E050E0BE016F5F7F4F0995E1
:101440000F90DF91CF91089583E08093E900809120
:10145000F200882319F08AE38093E80008950E943F
:101460009F0790E00895CF93DF931F92CDB7DEB72B
:10147000FC018485958597FD08C02FEF3FEF3587E8
:1014800024870F90DF91CF910895CE0101960E949D
:101490007507019719F4898190E0F3CF8FEF9FEFE3
:1014A000F0CF0F931F93CF93DF931F92CDB7DEB78B
:1014B0008C01FC018485958597FF0BC0CE010196B8
:1014C0000E947507019771F4898190E0F801958772
:1014D0008487F801848595850F90DF91CF911F91C6
:1014E0000F9108958FEF9FEFF1CFFC0184859585D3
:1014F00097FD0BC09FB7F89482E08093E90080913C
:10150000F2009FBF90E0019608959FB7F89482E0A3
:101510008093E9008091F2009FBF90E008952091B0
:10152000E604260F3327331F21323105ECF42091D6
:10153000E605FC0190E080E0243069F082E0089547
:10154000A091E6042191AC014C535B4FA40FB52F41
:10155000B11D2C930196861798F38091E604680FCD
:101560006093E60480E0089581E008951092E60516
:1015700081E08093E5051092C00561E082E00E9461
:10158000C40761E083E00E94C407E9EBF0E08081DA
:101590008E7F808380818D7F808388E48093B800F4
:1015A00085E48093BC000895CF93DF9391E09093FE
:1015B000C3048823B9F0C091B800D091BA008091DB
:1015C000BC008A7B8093BC0060E082E00E94C4077C
:1015D00060E083E00E94C4070E94B60AD093BA007C
:1015E000C093B800DF91CF910895CF92DF92EF9230
:1015F000FF920F931F93CF93DF93D0910F0681E05B
:10160000D13208F09CC0C0910E060E9466086B01A2
:101610007C018091E60581116CC082E08093E60533
:1016200081E08093E5058FEF8093E4051092E30558
:10163000D093E205AEEEB5E0E2ECF5E080E0D81341
:101640008DC01092C1058091C105CC0FC82BC093ED
:10165000C1058091C005813009F084C01092C00599
:101660000E9466086B017C018091C1058093BB00DC
:101670008091E8059091E905A091EA05B091EB050C
:10168000892B8A2B8B2BA1F00E9466080091E8051C
:101690001091E9052091EA053091EB056C197D095F
:1016A0008E099F09061717072807390708F442C053
:1016B0008091BC0083FDD8CF85EC8093BC000E9454
:1016C00066086B017C018091E605823009F44CC00C
:1016D0008091E4058F3F09F469C08091E405803270
:1016E00009F466C08091E405803309F463C084E0A6
:1016F00026C08091E8059091E905A091EA05B09196
:10170000EB05892B8A2B8B2B09F483CF0E9466086B
:101710000091E8051091E9052091EA053091EB056B
:101720006C197D098E099F090617170728073907C5
:1017300008F06FCF8091E7050E94D40A85E01092EF
:10174000ED0510920F061092EC05DF91CF911F91DD
:101750000F91FF90EF90DF90CF9008959D9191931E
:101760008F5F6DCF85EEA9CF8091E8059091E90557
:10177000A091EA05B091EB05892B8A2B8B2B09F4FC
:10178000A2CF0E9466080091E8051091E90520911A
:10179000EA053091EB056C197D098E099F09061742
:1017A00017072807390708F08ECFC4CF80E0C7CFCE
:1017B00082E0C5CF83E0C3CF089508950895E091F6
:1017C000C2048091C104E81730F4F0E0EF55FB4FFC
:1017D000808190E008958FEF9FEF08959091C2046B
:1017E0008091C1042FEF3FEF981748F4E92FF0E004
:1017F000EF55FB4F208130E09F5F9093C204C901F9
:1018000008958091C1049091C204891B990B089599
:10181000CF92DF92EF92FF920F931F93CF93DF93BC
:101820007C01CB018A012091EC05222389F0EB0198
:101830006B01C40ED51ECC15DD0569F06991D70189
:10184000ED91FC910190F081E02DC7010995F3CF56
:10185000642F0E948F0AC801DF91CF911F910F91D1
:10186000FF90EF90DF90CF900895CF93DF931F927A
:10187000CDB7DEB769832091EC052223F9F02091E2
:101880000F06203258F021E030E0FC013383228340
:1018900090E080E00F90DF91CF9108958091ED0569
:1018A000E82FF0E0E251FA4F998190838F5F8093A7
:1018B000ED0580930F0681E090E0ECCF61E0CE0172
:1018C00001960E948F0AF7CF8F929F92AF92BF929C
:1018D000CF92DF92EF92FF9297FF6DC0CC24DD2470
:1018E0007601C61AD70AE80AF90A6D392FEF72078E
:1018F000820792070CF070C08DE280939C04C701B0
:10190000B60124E630E040E050E00E943A308AE040
:10191000882E912CA12CB12CCA01B901A5019401EA
:101920000E943A30605D60939D04C701B601A50135
:1019300094010E943A30CA01B901A50194010E94A4
:101940003A30605D60939E04C701B6012AE030E042
:1019500040E050E00E943A30605D60939F048CE963
:1019600094E0FF90EF90DF90CF90BF90AF909F906A
:101970008F9008956B017C0180E2BFCF80E280935D
:101980009C048DE280939D04C701B6012AE030E0FB
:1019900040E050E00E943A30205D20939E04D4CF76
:1019A00020E220939C0420939D046B017C0180E243
:1019B00080939E04C9CF6436710581059105D4F6E4
:1019C0006A307105810591055CF320E220939C0447
:1019D0006B017C0180E2D6CF673F7F4F8F4F9F4FD7
:1019E0006CF280E280939C0480939D048DE2E0CFB2
:1019F0008FB7F8944091AA055091AB056091AC0562
:101A00007091AD058FBF80919704909198040196D5
:101A1000813127E2920784F590939804809397048C
:101A20008091930490919404A0919504B0919604B0
:101A3000481B590B6A0B7B0B77FD09C08FB1809552
:101A40008170799B8260369B846080939204809140
:101A5000920481709091920491FD82609091910422
:101A6000981749F0813011F150F0823081F08330C5
:101A700099F080939104089580E197E2CDCF913061
:101A800079F09230B1F79091200591500CC09923D4
:101A900039F09330C1F3EDCF9130A9F3923049F78B
:101AA000909120059F5F90932005E3CF992359F3F0
:101AB0009330F9F6F5CF4F925F926F927F928F92AB
:101AC0009F92AF92BF92CF92DF92EF92FF9280915E
:101AD000920482FF9FC080919004811121C081E017
:101AE0008093900480938F0483E080932A01109266
:101AF00092042FB7F8948091AA059091AB05A0911C
:101B0000AC05B091AD052FBF845D9E4FAF4FBF4F69
:101B10008093930490939404A0939504B0939604B7
:101B20008FB7F894C090AA05D090AB05E090AC05B3
:101B3000F090AD058FBF80918B0490918C04A091A3
:101B40008D04B0918E04A7019601281B390B4A0B16
:101B50005B0BDA01C901B7FD50C0D701C601865041
:101B60009F4FAF4FBF4F80938B0490938C04A093F3
:101B70008D04B0938E0480912005082E000C990BE3
:101B800097FF03C091958195910984300CF045C071
:101B900080918F048111C0C0E0912B01F0912C0144
:101BA00037E1E53FF30741F480910D01882309F403
:101BB000B7C0815080930D0180912A01882399F04C
:101BC0009091850491110CC0823038F0843008F473
:101BD000AEC0843011F410922A0181E08093850414
:101BE000099510928F0480918504811106C080911F
:101BF0002A01813011F410922A01FF90EF90DF90BA
:101C0000CF90BF90AF909F908F907F906F905F909C
:101C10004F9008951092900483CF80918A0421E020
:101C200030E040E050E0882309F453C08091200563
:101C30008090860490908704A0908804B0908904D6
:101C400081149104A104B104C1F1082E000C990B78
:101C500097FF03C0919581959109682F87FF02C076
:101C600063E0680F65956595062E000C770B880B71
:101C7000990B0E949D312B013C01C701B6016819E7
:101C800079098A099B090E949B319B01AC01C30120
:101C9000B2010E94F33020E030E04AE754E40E94B1
:101CA000523220E030E040E851E40E944D322AE018
:101CB00030E040E050E087FF04C021E030E040E049
:101CC00050E0C0928604D0928704E0928804F0929B
:101CD0008904A09120050A2E000CBB0B0E946A30DB
:101CE00024E030E040E050E00E943A308091350638
:101CF00090913606A0913706B0913806820F931F57
:101D0000A41FB51F8093350690933606A09337061F
:101D1000B09338061092200581E080932A013CCFD1
:101D20008FE080930D0181E080932A0145CF81E00F
:101D300080932A0152CFFC0130E020E09191992359
:101D400031F0907C9038D1F32F5F3F4FF7CFC9012E
:101D50000895CF93DF93EC016991662329F084EA1B
:101D600096E00E945509F8CFDF91CF9108950F9327
:101D70001F93CF93DF93EC01062F142F88898131B5
:101D800020F4882329F0411103C00E94F50A188A23
:101D90008889811112C08F8591E09093EC05809322
:101DA0000E061092ED0510920F0660E4111101C0AD
:101DB00060E088E996E00E94350C602F88E996E0A3
:101DC0000E94350C123041F488898F5F888BDF9137
:101DD000CF911F910F9108950E94F50A188AF7CFAD
:101DE000CF93DF9357985F9A6AE070E080E090E0CD
:101DF0000E948B08C9ECD0E089B190E0880F892F50
:101E0000881F990B892B49F46EE170E080E090E027
:101E10000E948B08A895219779F761E086E00E94DF
:101E200035086AE070E080E090E00E948B0881E075
:101E3000DF91CF9108950F931F93CF93DF9357981E
:101E40005F9A61E070E080E090E00E948B0801E121
:101E500017E2D0E0C0E089B190E0880F892F881F99
:101E6000990B892B11F4D0E0C0E061E070E080E0D4
:101E700090E00E948B080150110959F461E086E05E
:101E80000E9435085F9880E0DF91CF911F910F91FC
:101E900008952196C436D105F1F661E086E00E94EE
:101EA00035085F9881E0F0CF40914F0483B190E016
:101EB000880F892F881F990B9C0151E025272170DD
:101EC00020934F0442131AC020914D0430914E04C8
:101ED0002F5F3F4F30934E0420934D04213345E74D
:101EE0003407ACF020E335E730934E0420934D04E3
:101EF000892B91F481E080934C04089510924E0454
:101F000010924D04892BB1F380914C040895892BD4
:101F100089F320313742C4F310924C0480E00895D5
:101F2000AB01BC018091820590918305019690934D
:101F3000830580938205039769F4809184059091CD
:101F400085050396909385058093840510928305FB
:101F500010928205809182059091830520918605DB
:101F600030918705FC01E21BF30B9F01E091840592
:101F7000F09185052E0F3F1F30939105209390051A
:101F8000880F991F880F991FFC01EA58FA4F408368
:101F900051836283738381E00895F894FC01818109
:101FA000833059F0843079F0813029F480916F00CA
:101FB0008D7F80936F0078940895809171008D7F5C
:101FC00080937100F8CF809172008F7B80937200B4
:101FD000F2CFFC01F8946330A9F0643011F1613064
:101FE00071F41092800010928100909181009860AD
:101FF0009093810090918100916090938100618322
:102000007894089510929000109291009091910010
:1020100098609093910090919100916090939100BD
:10202000EECF1092C0001092C1009091C100986054
:102030009093C1009091C10091609093C100DFCF57
:10204000CF93DF93FC01F894418184819581A6812F
:10205000B781D085C18532852385423011F0443067
:1020600079F44D2F5C2F632F722F4F3F510561057F
:102070007105A1F098F04FEF50E060E070E00EC005
:102080004D2F5C2F632F722F4115510521E0620700
:10209000710520F04FEF5FEF60E070E0841B950B5F
:1020A000A60BB70B80879187A287B387108278949D
:1020B000DF91CF910895FC01F8948181408551858D
:1020C00062857385DB01823011F0843061F4CA01CE
:1020D0004F3F51056105710589F080F08FEF90E069
:1020E000A0E0B0E00BC0CA014115510521E0620734
:1020F000710520F08FEF9FEFA0E0B0E0481B590B77
:102100006A0B7B0B40875187628773878085918537
:10211000A285B385892B8A2B8B2B61F484819581D1
:10212000A681B78180879187A287B38781E080836A
:10213000789408951082FCCF88EB91E0A0E0B0E0A5
:102140008093260190932701A0932801B093290141
:102150008CE390E0A0E0B0E0809322019093230113
:10216000A0932401B093250110925B0510925C05A9
:1021700010925D0510925E0587E390E0A0E0B0E06C
:1021800080931E0190931F01A0932001B093210121
:102190001092550510925605109257051092580549
:1021A000109250051092510510925205109253054D
:1021B00010924B0510924C0510924D0510924E0551
:1021C00008950895CF93DF93EC018A85882329F041
:1021D00081508A87DF91CF9108959C818E819817D5
:1021E000C8F78D856827E881F9810084F185E02DA5
:1021F00042E0CE0109958C818F5F8C83EBCFDC01AF
:10220000ED91FC910084F185E02D40E009940F935D
:102210001F93CF938C01FC016483C085C60F6C2F84
:102220006F700E94FF106C2F62956F706061C80123
:10223000CF911F910F910C94FF10FC0127812695DF
:1022400026952695621720F46583606B0C94FF1029
:1022500008951F93CF93DF93EC01142F8E8168179D
:1022600018F4CE010E940711612FCE01DF91CF91AA
:102270001F910C941D110F931F93CF93DF93C09167
:10228000AB06C695C695C695C1501091AA061150C9
:102290001092AE06D0E04D2F60E084EA96E00E94F6
:1022A000291100E06091B10684EA96E00E94E210F4
:1022B0000F5F1017B8F7DF5FCD1768F740E060E0F9
:1022C00084EA96E0DF91CF911F910F910C94291130
:1022D00020912B0130912C0128173907D9F09093C8
:1022E0002C0180932B014093350650933606609362
:1022F000370670933806855F974111F410923406C3
:102300000E943B1182E080932A0181E08093810446
:10231000109285040895E091340640E050E0BA013F
:1023200085EF97E1EE2379F0E150E093340686E003
:10233000E89FF0011124E05FF94F428153816481ED
:102340007581808191810C946811EF92FF921F93A7
:10235000CF93DF931092C2041092C1041092ED0546
:1023600010920F060E94B60A8CED9BE09093E50454
:102370008093E4048DED9BE09093E9048093E8045E
:102380008CE08093B8001092B4068CE38093B3067F
:102390001092A8061092A906E7E4F8E0E590F49000
:1023A000E9E4F8E01491EAE4F8E0E491E093AA06A5
:1023B000EBE4F8E0E491E093AB06ECE4F8E0E491C0
:1023C000E093AC06D0E0C0E0C11750F4F701EC0F89
:1023D000FD1F649184EA96E00E94FF102196F4CFDD
:1023E0000E943B11E5EDF0E0F093B006E093AF06FC
:1023F0008491E6EDF0E0E491F82F319789F41092A2
:10240000AD0660EA84EA96E00E94FF1060EC84EA80
:1024100096E0DF91CF911F91FF90EF900C94FF1009
:1024200081E08093AD06EDCF482F440F662351F035
:102430009FEF9093B1068093840464E084EA96E071
:102440000C9429111092B106F8CFFF920F931F93AD
:10245000CF93DF93C62F8A01F22E682F8C2F0E9414
:102460001412CC0F4C2F64E084EA96E00E942911EC
:10247000DAE0F8016491662341F084EA96E00E9474
:102480005509D81B0F5F1F4FF4CFD15030F060E2D9
:1024900084EA96E00E945509F8CF4C2F61E784EA60
:1024A00096E00E9429116F2D84EA96E0DF91CF918A
:1024B0001F910F91FF900C945509CF92DF92EF92EC
:1024C000FF920F931F93CF93DF93809135069091E6
:1024D0003606A0913706B0913806B7FF08C01092B3
:1024E0003506109236061092370610923806809103
:1024F000390690913A06A0913B06B0913C06409176
:10250000350650913606609137067091380684176B
:102510009507A607B70744F48093350690933606CF
:10252000A0933706B093380680912A01882309F4D6
:1025300056C06091350670913606809137069091AD
:10254000380600913D0610913E0620913F063091DD
:102550004006600F711F821F931F0E949D310E94D1
:1025600065310E94640C8C01C0904306D0904406F3
:1025700061E0809184040E941412C8010E949B0EA5
:10258000C82FD0918404DD0F4D2F64E084EA96E0DB
:102590000E9429118BE0F82EF6016491662351F018
:1025A00084EA96E00E945509F81AFFEFCF1ADF0A75
:1025B000F110F2CF0115110591F06FE384EA96E076
:1025C0000E94550965EFC69F602D112464584D2F58
:1025D00084EA96E00E942911C8010E94A90E109178
:1025E0008F04111108C0809145068823B9F18091AC
:1025F0002A01882399F1C0914106D0914206209783
:10260000E1F0609135067091360680913706909121
:102610003806C0903D06D0903E06E0903F06F09010
:1026200040066C0D7D1D8E1D9F1D0E949D310E94D8
:102630006531688379838A839B83E0914606F091B4
:102640004706309731F080914506811101C0111184
:10265000099580918F0481110E948B1110928F0433
:10266000DF91CF911F910F91FF90EF90DF90CF906E
:1026700008952F923F924F925F926F927F928F9226
:102680009F92AF92BF92CF92DF92EF92FF920F9301
:102690001F93CF93DF9300D000D000D0CDB7DEB72B
:1026A000FC01238534852115310509F41FC19E8362
:1026B0008D83F9013296649031964491E42EF12C89
:1026C000F7E0EF0EF11C53E0F594E7945A95E1F72B
:1026D000E982F901349654913196E491651740F0FE
:1026E0008E2F90E0FC01E50FF11D6E171F06ECF137
:1026F0006D3021F5ED81FE818681882321F060E037
:10270000CF010E94071181E090E026960FB6F89461
:10271000DEBF0FBECDBFDF91CF911F910F91FF9014
:10272000EF90DF90CF90BF90AF909F908F907F9071
:102730006F905F904F903F902F9008956A3009F00E
:10274000D5C0ED81FE818681882321F060E0CF0134
:102750000E940711ED81FE81868565818E9D600D49
:102760001124CF010E941D11CECF89010A5F1F4F96
:10277000651BED81FE8171855685759F502D112455
:102780005C83F90154912F5F3F4FF9012491352F5C
:102790002230310508F06AC06E9CC0016F9C900D1C
:1027A0001124689FF001699FF00D11240E0F1F1F67
:1027B000512CED81FE81F481FA83ED81FE8125802B
:1027C000F285FB83862C912CAA24A394B12C312C66
:1027D0008981381608F086C0412CED81FE818685FE
:1027E000481608F078C08B818287311002C04420DF
:1027F00041F0ED81FE8145814F5F6A81CF010E94EA
:102800002911D12CC12CC61408F058C0F801EC0DC8
:10281000FD1D7490552061F0EA14FB0449F4E72D86
:10282000F0E0052C02C0F595E7950A94E2F77E2EBC
:10283000ED81FE818685823081F4442009F43AC01E
:1028400072948FE07822E72DF0E0EB53FF4F749005
:10285000672D8D819E810E94E210672D8D819E8162
:102860000E94E2108FEFC81AD80ACDCF477028E037
:10287000522E541A411101C0512CF801612C30E044
:1028800020E0661631F04491240F311D6394319697
:10289000F8CF600E712E711CF3016490E29EF0017E
:1028A000E39EF00DF29EF00D11248E0F9F1F080F76
:1028B000191F7FCFF72DFF707F2EC5CFD12CEC8154
:1028C000DE1639F060E08D819E810E94E210D39483
:1028D000F6CF439482CF3394080D191DFFEFAF1A42
:1028E000BF0A76CF622D8D819E813CCF90E080E043
:1028F0000CCF089590E080E00895AF92BF92CF9200
:10290000DF92FF920F931F93CF93DF93CDB7DEB784
:10291000FD84AE84BF84E889F989608171818281F8
:1029200093810E94640C6C016C858F2D0E9414129F
:10293000C6010E949B0E082F1AE0181BF501649136
:10294000662349F084EA96E00E945509181BFFEFC0
:10295000AF1ABF0AF3CF6AE384EA96E00E945509F2
:10296000115010F060E2F8CF4F2D440F65EF069F35
:10297000602D1124645884EA96E00E942911C60152
:102980000E94A90EDF91CF911F910F91FF90DF90D0
:10299000CF90BF90AF900895FB0101900020E9F720
:1029A0003197AF01461B570BDC01ED91FC91028082
:1029B000F381E02D09948F929F92AF92BF920F9373
:1029C0001F93CF93DF93CDB7DEB7A1970FB6F894DF
:1029D000DEBF0FBECDBF19A2423008F44AE08E011F
:1029E0000F5D1F4F842E912CB12CA12CA5019401B9
:1029F0000E941830E62FB901CA01EA3004F5E05D03
:102A0000D801EE938D01232B242B252B79F790E011
:102A100080E0109729F0BD0188E496E00E94CC1474
:102A2000A1960FB6F894DEBF0FBECDBFDF91CF9158
:102A30001F910F91BF90AF909F908F900895E95C88
:102A4000DFCFCF92DF92EF92FF92CF93DF936B01B4
:102A50007C01F7FE21C06DE288E496E00E945509F2
:102A6000EC0166277727CB016C197D098E099F0938
:102A70004AE00E94DB14C80FD91F64E971E088E4C2
:102A800096E00E94CC148C0F9D1FDF91CF91FF9098
:102A9000EF90DF90CF9008954AE00E94DB14EC01A4
:102AA000ECCFCF93DF93BC0190E080E04AE00E943E
:102AB000DB14EC0164E971E088E496E00E94CC1438
:102AC0008C0F9D1FDF91CF9108950F931F93CF938C
:102AD000DF93EC010E94CC148C0164E971E0CE011B
:102AE0000E94CC14800F911FDF91CF911F910F9105
:102AF00008950C94CC144F925F926F927F928F92B4
:102B00009F92AF92BF92CF92DF92EF92FF920F937C
:102B10001F93CF93DF9300D000D000D0CDB7DEB7A6
:102B2000C0906605D0906705E0906805F090690553
:102B300009E0C016D104E104F104FCF0109266052E
:102B400010926705109268051092690526960FB6D7
:102B5000F894DEBF0FBECDBFDF91CF911F910F91D3
:102B6000FF90EF90DF90CF90BF90AF909F908F90AD
:102B70007F906F905F904F900895C114D104E1044D
:102B8000F10409F4D6C08091640590916505019621
:102B900090936505809364052C988BE193E00197F1
:102BA000F1F780916205909163050196909363051A
:102BB00080936205C114D104E104F10409F0BEC0A0
:102BC00080ED97E0A0E0B0E0809361049093620410
:102BD000A0936304B093640420914B0530914C059D
:102BE00040914D0550914E05AEE1B0E00E945F303E
:102BF00061537C4F8F4F9F4F60935D0470935E04D1
:102C000080935F049093600480916A0590916B05B6
:102C1000A0916C05B0916D05C816D906EA06FB06B1
:102C20000CF095C0C114D104E104F10409F48FC083
:102C30008AE590E0A0E0B0E08093590490935A04B4
:102C4000A0935B04B0935C04A0E4BFE1A7019601EC
:102C50000E945F308090590490905A04A0905B04C9
:102C6000B0905C049B01AC01280D391D4A1D5B1D11
:102C700029833A834B835C83209355043093560415
:102C80004093570450935804809123059091240554
:102C9000A0912505B0912605BA01A901481B590B41
:102CA0006A0B7B0B14161506160617060CF058C097
:102CB0008E981092500483EC90E00197F1F74A014E
:102CC0005B0177FF07C0882499245401841A950A70
:102CD000A60AB70A8092510490925204A09253041B
:102CE000B092540410915004412C512C3201F0E068
:102CF000E0E030E020E0A0E5B0E084149504A60414
:102D0000B70409F470C02F5F3F4F21348FE13807BB
:102D100014F030E020E0CF010196111104C0283BEF
:102D20000BE0300714F58330910599F590E080E0D1
:102D300030C010926505109264052ECF10925D048C
:102D400010925E0410925F04109260045DCF1092A6
:102D5000590410925A0410925B0410925C0474CFD0
:102D600081E0809350048E9AA6CF24370EE030077E
:102D7000D4F22E3C08E13007B4F2243F0AE13007D8
:102D80006CF581E08E831D82EF2B09F01E828E810F
:102D90009D81FC013196E330F10519F41197F0E0C3
:102DA000E0E0A832B10514F4A8E2B0E08F9ACD01BA
:102DB000880F991F880F991F05970197F1F78F9832
:102DC000CD01880F991F880F991F8D970197F1F7F3
:102DD0008FEF481A580A680A780A8FCF28350BE116
:102DE00030077CF6A0CFC114D104E104F10409F04E
:102DF0004AC04091610450916204609163047091F3
:102E00006404759567955795479580E090E0DC01DF
:102E100023EC30E084179507A607B70764F48F9A70
:102E2000F9013197F1F78F98F9013197F1F7019690
:102E3000A11DB11DEFCF2C988BEA94E00197F1F71B
:102E40008E988BE193E00197F1F740915D045091EA
:102E50005E0460915F047091600480E090E0DC01AA
:102E60002FE431E084179507A607B707B4F48F9ACB
:102E7000F9013197F1F78F98F9013197F1F7019640
:102E8000A11DB11DEFCF452B462B472B29F08E9A64
:102E90008BE193E00197F1F72C982C9A29813A81E4
:102EA0004B815C81209323053093240540932505B5
:102EB00050932605C0926B04D0926C04E0926D048E
:102EC000F0926E0466E971E088E496E00E94651570
:102ED00067E971E088E496E00E947915C090620588
:102EE000D09063050D2C000CEE08FF084AE0C701E6
:102EF000B601F7FE0DC06DE288E496E00E94550928
:102F000066277727CB016C197D098E099F094AE056
:102F10000E94DB1464E971E088E496E00E94CC141E
:102F20006FE971E088E496E00E94791560916B0486
:102F300070916C0480916D0490916E046F5F7F4F6F
:102F40008F4F9F4F0E94211566E971E088E496E05B
:102F50000E9465158091660590916705A0916805AE
:102F6000B091690580936A0590936B05A0936C05F9
:102F7000B0936D05EBCD0E94E43385ED8093BC00EA
:102F80008091E8059091E905A091EA05B091EB05E3
:102F90000796A11DB11D23E0B695A7959795879536
:102FA0002A95D1F72091BC0024FD03C01092E605BC
:102FB00008954091E8055091E9056091EA05709106
:102FC000EB05452B462B472B69F30097A105B1056F
:102FD00041F025E32A95F1F700000197A109B10915
:102FE000E1CF8091E7050C94D40A0F931F93CF9300
:102FF000DF9310928A0480918F0410928F048823AB
:1030000069F00E94A51140E050E0BA0184E39AE122
:10301000DF91CF911F910F910C94681120916B0457
:103020002F5FE22FF0E060E2243630F0CF0164E65B
:1030300070E00E940430605D60939D0480E22A305D
:1030400058F02AE030E0CF01B9010E940430CB01F2
:10305000B9010E940430805D80939E04CF016AE034
:1030600070E00E940430805D80939F0440E064E043
:1030700084EA96E00E94291187EA91E00E94A90E55
:103080008DE994E00E94A90E2091620530916305BC
:1030900060E2203187E2380730F0C90160E177E271
:1030A0000E94F02F605D60939B0480E2283EE3E085
:1030B0003E0758F0C90168EE73E00E94F02FCB0183
:1030C0006AE070E00E94F02F805D80939C0480E2B3
:1030D0002436310558F0C90164E670E00E94F02FF3
:1030E000CB016AE070E00E94F02F805D80939D0428
:1030F00080E22A30310558F0EAE0F0E0C901BF0172
:103100000E94F02FCB01BF010E94F02F805D8093C1
:103110009E04C9016AE070E00E94F02F805D8093F8
:103120009F046BE974E085E694E00E94E93342E095
:1031300064E084EA96E00E94291180EB91E00E940D
:10314000A90E85E694E00E94A90E44E064E084EABA
:1031500096E00E94291167EB71E084EA96E00E94F4
:10316000791546E064E084EA96E00E94291183E143
:1031700095E00E949B0EC82F03E115E0DBE0F8010B
:1031800061918F01662331F084EA96E00E9455092F
:10319000D81BA9F7CB3038F460E284EA96E00E94AD
:1031A0005509CF5FF7CFDF91CF911F910F91089510
:1031B0008F929F92AF92BF92CF92DF92EF92FF9247
:1031C0000F93CF93DF931F92CDB7DEB76C017B01D6
:1031D000490180916F045B01A40EB51E8823A1F004
:1031E000F60180819181480F591F518340830F90D0
:1031F000DF91CF910F91FF90EF90DF90CF90BF9034
:10320000AF909F908F900895F601808191810E94E8
:10321000CA2F898390914B04992311F0002311F058
:10322000F7018083BE016F5F7F4FC4010E941205CA
:10323000F60180819181019691838083FFEFEF1ADF
:10324000FF0AEA14FB0401F7D2CF0F93CF93DF9369
:10325000CDB7DEB72A970FB6F894DEBF0FBECDBF4D
:103260001E821D8284E690E098878F8301E09E0194
:103270002B5F3F4F44E050E0BE016F5F7F4FCE01B8
:1032800007960E94D8189E012B5F3F4F42E050E006
:10329000BE01675F7F4FCE0107960E94D81843E0BA
:1032A00050E0BE016F5F7F4F83E391E00E94F033F7
:1032B000892B89F081E080936F0490916F0481E005
:1032C00089272A960FB6F894DEBF0FBECDBFDF91D7
:1032D000CF910F9108951E821D8200E09E012B5F09
:1032E0003F4F44E050E066E271E0CE0107960E9455
:1032F000D8189E012B5F3F4F44E050E062E271E03E
:10330000CE0107960E94D8189E012B5F3F4F44E0E4
:1033100050E06BE575E0CE0107960E94D8189E013B
:103320002B5F3F4F44E050E06EE171E0CE01079625
:103330000E94D8189E012B5F3F4F44E050E065E5A6
:1033400075E0CE0107960E94D8189E012B5F3F4F73
:1033500044E050E060E575E0CE0107960E94D81881
:103360009E012B5F3F4F44E050E06BE475E0CE01DF
:1033700007960E94D8188F8198858638910509F0A4
:1033800099CF10926F042D813E8189859A852817E7
:10339000390709F08FCF91CF81E080934B040E94D1
:1033A000251910924B0481110C9425190E949C1030
:1033B00081E008957F928F929F92AF92BF92CF92B9
:1033C000DF92EF92FF920F931F93CF93DF931F92A1
:1033D000CDB7DEB7E0916F04E1113EC069018C0109
:1033E0005B017B01E40EF51EAE14BF04C9F0F801C9
:1033F00080809180F50171905F017982C4010E9403
:10340000CA2F7816E1F0672DC4010E94D22FC401A3
:103410000E94CA2F9981891791F081E080936F04EF
:103420000F90DF91CF911F910F91FF90EF90DF9060
:10343000CF90BF90AF909F908F907F900895BE01E6
:103440006F5F7F4FC6010E941205F8018081918154
:10345000019691838083C8CFFC0120813181420F86
:10346000531F51834083DCCF2F923F924F925F9244
:103470006F927F928F929F92AF92BF92CF92DF9284
:10348000EF92FF920F931F93CF93DF93CDB7DEB7E9
:103490002A970FB6F894DEBF0FBECDBF10928A04F4
:1034A0008091350690913606A0913706B091380686
:1034B00081309048A105B10540F010923506109278
:1034C0003606109237061092380620913506209362
:1034D000820410928104809170041816C4F4082E9E
:1034E000000C990B0197022E000C330B281739079B
:1034F00074F080938204092E000CAA0BBB0B8093FE
:10350000350690933606A0933706B093380680911F
:10351000820490918304891714F48093830420918A
:103520008304022E000C330B2D5F3F4F482F082ED3
:10353000000C550B241735071CF48350809383042B
:103540001091830400E085EAE82E88E0F82E93EBE2
:10355000C92E98E0D92E21ECA22E28E0B22E209080
:10356000020230900302409004025090050234E6BB
:10357000832E912C11119BC180918204882309F420
:103580006FC180912A01882359F081E090918204D3
:10359000911180E02EE54FEC58E0602F0E9425123B
:1035A00040912601509127016091280170912901D5
:1035B0008091090190910A01A0910B01B0910C0139
:1035C000481759076A077B07C9F063EC71E088E484
:1035D00096E00E94651581E0809361058091260147
:1035E00090912701A0912801B091290180930901B0
:1035F00090930A01A0930B01B0930C01409122011A
:103600005091230160912401709125018091050161
:1036100090910601A0910701B09108014817590740
:103620006A077B07C9F06CEC71E088E496E00E94C1
:10363000651581E0809360058091220190912301BE
:10364000A0912401B091250180930501909306017A
:10365000A0930701B093080140915B0550915C0570
:1036600060915D0570915E0580917D0490917E046E
:10367000A0917F04B0918004481759076A077B071F
:10368000C9F065ED71E088E496E00E94651581E07F
:1036900080935F0580915B0590915C05A0915D052D
:1036A000B0915E0580937D0490937E04A0937F0487
:1036B000B093800440911E0150911F016091200140
:1036C000709121018091010190910201A09103016B
:1036D000B0910401481759076A077B07C9F06EEDDE
:1036E00071E088E496E00E94651581E080935A05B8
:1036F00080911E0190911F01A0912001B0912101A4
:103700008093010190930201A0930301B0930401FF
:103710004091550550915605609157057091580597
:103720008091790490917A04A0917B04B0917C04FB
:10373000481759076A077B07C9F067EE71E088E40C
:1037400096E00E94651581E08093590580915505AA
:1037500090915605A0915705B09158058093790432
:1037600090937A04A0937B04B0937C04409150051D
:1037700050915105609152057091530580917504E7
:1037800090917604A0917704B09178044817590776
:103790006A077B07C9F060EF71E088E496E00E9459
:1037A000651581E0809354058091500590915105F5
:1037B000A0915205B09153058093750490937604BF
:1037C000A0937704B093780440914B0550914C0539
:1037D00060914D0570914E05809171049091720435
:1037E000A0917304B0917404481759076A077B07C6
:1037F000B1F069EF71E088E496E00E946515809170
:103800004B0590914C05A0914D05B0914E058093CC
:10381000710490937204A0937304B09374041830ED
:1038200009F088C280918204883009F4DEC1809159
:103830002A01882361F081E090918204983009F098
:1038400080E020E242E658E0602F0E9425121F5FD0
:103850000F5F043009F08ECE8BE0809370040EC0B1
:1038600080918F04882309F48CCE10928F040E94DB
:103870008B1180918104882309F483CE2A960FB698
:10388000F894DEBF0FBECDBFDF91CF911F910F9196
:10389000FF90EF90DF90CF90BF90AF909F908F9070
:1038A0007F906F905F904F903F902F9008951130D0
:1038B000D9F57090820481E07816C1F080912A01D8
:1038C000882309F46DCE83E08F9387EE8F931F9248
:1038D0001F9286E291E09F938F93BF92AF920F93D6
:1038E00081E0781609F440C080E03EC080918F04EA
:1038F000882321F310928F0410938A041092860477
:1039000010928704109288041092890420E030E01D
:10391000A90166E271E088EC98E00E940C078091B2
:103920008104882359F2AACF123009F046C2709060
:10393000820492E0791609F180912A01882309F422
:103940002FCE83E08F9387EE8F938FEF8F938DE948
:103950008F9382E291E09F938F93DF92CF920F93A8
:1039600081E022E07212C0CF8F930E947D140FB6C7
:10397000F894DEBF0FBECDBF13CE80918F04882395
:10398000D9F210928F0481E080938A041092860409
:103990001092870410928804109289042DE93FEF59
:1039A0004FEF5FEF62E271E08AEB98E00E940C0754
:1039B00080918104882309F4BFCF60CF7090820486
:1039C00093E07916B9F080912A01882309F4E8CDB3
:1039D00083E08F9387EE8F938FEF8F938DE98F9393
:1039E0008BE595E09F938F93FF92EF920F9381E089
:1039F00023E0B8CF80918F04882329F310928F049D
:103A000081E080938A0410928604109287041092B9
:103A10008804109289042DE93FEF4FEF5FEF6BE5CB
:103A200075E08CEA98E00E940C078091810488235D
:103A300051F224CF7090820494E07916D9F08091ED
:103A40002A01882309F4ACCD83E08F9387EE8F930E
:103A50008FEF8F938DE98F938EE191E09F938F93FA
:103A600087E998E09F938F930F9381E094E0791218
:103A70003BCF7ACF80918F04882309F310928F0473
:103A800081E080938A041092860410928704109239
:103A90008804109289042DE93FEF4FEF5FEF6EE14C
:103AA00071E08EE998E00E940C07809181048823E0
:103AB00031F2E4CE7090820495E07916C9F08091DD
:103AC0002A01882309F46CCD83E08F9387EE8F93CE
:103AD0008FEF8F938DE98F9385E595E09F938F937B
:103AE00089E898E09F938F930F9381E095E0BFCF93
:103AF00080918F04882319F310928F0481E08093C2
:103B00008A041092860410928704109288041092FE
:103B100089042DE93FEF4FEF5FEF65E575E080E940
:103B200098E00E940C0780918104882341F2A6CE80
:103B30007090820496E07916B9F080912A0188236A
:103B400009F42ECD83E08F9387EE8F931F921F92FF
:103B500080E595E09F938F938BE798E09F938F93F9
:103B60000F9381E096E083CF80918F04882329F31F
:103B700010928F0481E080938A0410928604109240
:103B80008704109288041092890420E030E0A90193
:103B900060E575E082E898E00E940C07809181045E
:103BA000882359F26BCE80918F04882309F41AC1BF
:103BB00010928F0481E080938A0410928604109200
:103BC000870410928804109289042DE93FEF4FEF8B
:103BD0005FEF6BE475E084E798E00E940C0780914A
:103BE0008104882309F4FEC049CE80918F04882384
:103BF00009F41DCE10928F0429823A824B825C8296
:103C00001A86198698868F8210926F049E01275F0C
:103C10003F4F44E050E0BE016F5F7F4FCE010796FB
:103C20000E94DA198F819885029698878F831A8669
:103C300019869E01275F3F4F44E050E066E271E045
:103C4000CE0107960E94DA199E01275F3F4F44E09C
:103C500050E062E271E0CE0107960E94DA199E01FF
:103C6000275F3F4F44E050E06BE575E0CE010796DB
:103C70000E94DA199E01275F3F4F44E050E06EE159
:103C800071E0CE0107960E94DA199E01275F3F4F2F
:103C900044E050E065E575E0CE0107960E94DA1930
:103CA0009E01275F3F4F44E050E060E575E0CE01A4
:103CB00007960E94DA199E01275F3F4F44E050E0CB
:103CC0006BE475E0CE0107960E94DA1980916F04CB
:103CD00081112AC06F80788489859A859E838D831F
:103CE00098868F829E01275F3F4F44E050E063E358
:103CF00071E0CE0107960E94DA199E01275F3F4FBF
:103D000042E050E0BE016B5F7F4FCE0107960E94FC
:103D1000DA1991E026E86216710409F490E08091C6
:103D20006F04892B80936F0480918104882309F4A8
:103D30007ECDA4CD1930F9F47090820489E0781614
:103D400069F080912A01882309F481CD81E099E00E
:103D5000791280E020E24DE458E076CD80918F0426
:103D6000882379F310928F040E94CC1980918104EA
:103D7000882339F383CD1A3009F069CD709082041D
:103D80002AE0721669F080912A01882309F45FCD38
:103D900081E09AE0791280E020E247E558E054CDD6
:103DA00080918F04882379F310928F040E949C10D5
:103DB00080918104882339F361CD133009F4FECD5D
:103DC000143009F437CE153009F474CE163009F4E6
:103DD000AFCE173009F0E4CB7090820497E07916EB
:103DE00009F4E1CE80912A01882309F4D9CB83E03C
:103DF0008F9387EE8F938FEF8F938DE98F938BE463
:103E000095E09F938F938DE698E09F938F930F9308
:103E100081E097E02CCE0C945B331F920F920FB68B
:103E20000F9211242F933F938F939F93AF93BF9340
:103E30008091AA059091AB05A091AC05B091AD051C
:103E40003091A90523E0230F2D3758F50196A11DC8
:103E5000B11D2093A9058093AA059093AB05A0936B
:103E6000AC05B093AD058091AE059091AF05A091E2
:103E7000B005B091B1050196A11DB11D8093AE05AD
:103E80009093AF05A093B005B093B105BF91AF91EA
:103E90009F918F913F912F910F900FBE0F901F9088
:103EA000189526E8230F0296A11DB11DD2CF1F92AF
:103EB0000F920FB60F9211248F939F938091E10080
:103EC0009091E100937F9093E10083FF0FC01092E7
:103ED000E90091E09093EB001092EC0092E3909354
:103EE000ED001092BF0598E09093F00082FF22C091
:103EF00093E09093E9009091F200992319F09AE3EE
:103F00009093E80090911005992341F0909110054D
:103F1000915090931005911101C05D989091BE054C
:103F2000992341F09091BE0591509093BE05911157
:103F300001C0289884FF18C08091E2008E7E8160C5
:103F40008093E2008091E1008F7E8093E100809178
:103F500011058E7E8061809311059F918F910F9046
:103F60000FBE0F901F90189580FFF7CF8091E20051
:103F70008E7E80618093E2008091E1008E7E80934E
:103F8000E100809111058E7E8160E5CF1F920F9236
:103F90000FB60F921124CF92DF92EF92FF920F9300
:103FA0001F932F933F934F935F936F937F938F93C1
:103FB0009F93AF93BF93EF93FF93CF93DF93CDB7CF
:103FC000DEB76C97DEBFCDBF1092E9008091E800AC
:103FD00083FF25C068E0CE0145960E94480982EF24
:103FE0008093E8008D8987FF39C09091E80090FFA9
:103FF000FCCF982F907609F034C19E894F89588D57
:104000002F89F88C911131C0803861F580911205AB
:104010008093F1001092F1008EEF8093E8006C968F
:104020000FB6F894DEBF0FBECDBFDF91CF91FF91E9
:10403000EF91BF91AF919F918F917F916F915F9120
:104040004F913F912F911F910F91FF90EF90DF9033
:10405000CF900F900FBE0F901F9018959EEF9093EA
:10406000E800C7CF1092F100D5CF913059F48111FB
:10407000D3CF4130510581F6809112058D7F809319
:104080001205CACF933049F48111C6CF4130510592
:1040900019F6809112058260F2CF953041F480913B
:1040A000E80080FFFCCF20682093E300B5CF963076
:1040B00009F0A9C00B8D1C8D22E01092E90010922E
:1040C0000E0510920D05F2122EC010920C051092E2
:1040D0000B050E9417091F8299E09983FA8291E0EB
:1040E0009E8390EA98879AEF998720910D053091E9
:1040F0000E05275F3F4F3C832B838D831092E90091
:1041000010920E0510920D0510930C0500930B05EF
:1041100049E050E0BE016F5F7F4F80E00E94F108F0
:104120000E94170979CF10930C0500930B050E948C
:10413000B007DC0112960D911C910115110509F4CF
:1041400051C1D801ED91FC910480F581E02DBE01B3
:104150006B5E7F4FC8010995009709F03EC1F801D9
:1041600000851185EACFF3E0FF120EC08F89882306
:1041700009F440C0823061F440E86DE08AE399E0E0
:104180000E94F523811148CF81E28093EB0047CF55
:10419000813029F440E86BE08EE299E0F1CF833082
:1041A00099F70E94B007DC011296ED90FC908E0109
:1041B0000F5F1F4F6801E114F10479F0D701ED9111
:1041C000FC910680F781E02DB801C7010995080F21
:1041D000111DF701E084F184EECFD8011C92F601A5
:1041E00001900020E9F73197BF016C197D0940E08B
:1041F000C601C6CF68E179E0FB01449150E080E858
:104200000E94F10809CF973009F4BECF983021F40D
:1042100081E08093F10000CF993009F0FDCE8370EA
:1042200009F0B2CFE8E3F1E081E031E096E32191DB
:10423000222371F08093E9003093EB00DF011197A6
:104240002C912093EC009093ED008F5F873079F7ED
:104250008EE78093EA001092EA008F898093BF0571
:10426000DBCE8B8D9C8D1092E90010920E05109282
:104270000D0590930C0580930B05898D811192C0DB
:104280008E899D89913A49F4813209F07DCF47E0CA
:1042900050E062E171E080E0B3CF913209F074CF79
:1042A000833269F48F89988DB0E0A0E080930E018D
:1042B00090930F01A0931001B0931101ADCE803205
:1042C00069F48091E80082FFFCCF67E082E191E031
:1042D0000E9448098BEF8093E8009ECE823209F05D
:1042E0009BCE8F8980931901EEEFFFE78591949122
:1042F0008B3F9C4D51F1E0E0F8E0809112019091EC
:104300001301A0911401B0911501803B9440A105C7
:10431000B105F1F48091190180FD1AC0EE3F8AE0E9
:10432000F80789F587E797E791838083809160009C
:1043300080930F0588E19BE00FB6F894A8958093D1
:1043400060000FBE9093600067CEEEEFFAE0D5CF2D
:10435000808191818737974709F05ECEA89580913B
:10436000600088618093600080910F0580936000F9
:10437000EE3F2AE0F20789F08091FE0A9091FF0A51
:104380009183808349CE808191818737980751F24C
:104390009093FF0A8093FE0AC5CF1092FF0A1092F5
:1043A000FE0A3ACE0E94B007DC0112960D911C91D4
:1043B0000115110509F4E8CED801ED91FC910190A9
:1043C000F081E02DBE016B5E7F4FC8010995811120
:1043D00023CEF80100851185EBCF181619060CF4D1
:1043E0001BCED2CEF1E0FF12BECE6CE179E004CF5D
:1043F0001F920F920FB60F9211242F933F934F935A
:104400005F936F937F938F939F93AF93BF93EF933C
:10441000FF938091B900887F803609F44AC0F0F597
:10442000883209F4A7C018F5803109F49BC0B8F4AC
:10443000882309F4F9C0883009F494C0FF91EF9102
:10444000BF91AF919F918F917F916F915F914F91AC
:104450003F912F910F900FBE0F901F9018958831AC
:1044600009F488C0803251F78093E40514C0803489
:1044700009F49DC040F48033B9F38833F9F6809392
:10448000E40585ECB0C0803509F485C0883509F4B1
:1044900096C0883499F60E94BD17D0CF883909F4A8
:1044A0008CC038F5883729F050F4883611F0803701
:1044B00029F683E08093E60510920A0557C08838F4
:1044C00009F47BC0803919F0803809F0B7CF8091AA
:1044D0000A05803208F071C0E0910A0581E08E0F74
:1044E00080930A058091BB00F0E0E651FB4F80838A
:1044F0003DC0803B39F0E0F4803A09F479C0883A55
:1045000009F09CCF84E08093E6051092E7041092B6
:10451000E604E091E404F091E50409958091E60455
:1045200081110FC081E08093E6041092C40409C099
:10453000803C09F4A6CF883C09F4A3CF883B09F05E
:104540007DCFE091E70481E08E0F8093E704F0E0F7
:10455000EC53FB4F80818093BB009091E7048091E6
:10456000E60429C08091C1058093BB0085EC80934F
:10457000BC0064CF9091E3058091E205981758F54F
:10458000E091E30581E08E0F8093E305F0E0EE53C8
:10459000FA4F8081E9CFE091E30581E08E0F8093AF
:1045A000E3058091BB00F0E0EE53FA4F80839091D9
:1045B000E3058091E2059817C8F285E8D8CFE0912D
:1045C000E30581E08E0F8093E3058091BB00F0E06E
:1045D000EE53FA4F80838091E50581115CCF81E035
:1045E0008093C00584EA8093BC001092E60526CF34
:1045F00085EC8093BC001092E60580910A0580321C
:1046000030F4E0910A05F0E0E651FB4F1082609132
:104610000A0570E0E091E804F091E9048AEE94E084
:10462000099510920A050ACF1092E40534CF1F9223
:104630000F920FB60F921124CF92DF92EF92FF925A
:104640002F933F934F935F936F937F938F939F939A
:10465000AF93BF93EF93FF93C090C706D090C80667
:10466000E090C906F090CA068091BC06833069F5D7
:10467000C114D104E104F10409F443C08091BB06E4
:104680008823D1F1E091CF06F091D006309739F030
:104690008091D1069091D206009761F109958BEB3C
:1046A00096E00E9420101C141D041E041F046CF4CC
:1046B00081E0C81AD108E108F108C092C706D0927B
:1046C000C806E092C906F092CA06FF91EF91BF9129
:1046D000AF919F918F917F916F915F914F913F919A
:1046E0002F91FF90EF90DF90CF900F900FBE0F9023
:1046F0001F9018950995D3CF8BEB96E00E945B1025
:10470000E4CF8BEB96E00E94CD0FDFCF1F920F928C
:104710000FB60F921124CF92DF92EF92FF922F9358
:104720003F934F935F936F937F938F939F93AF9339
:10473000BF93EF93FF93C090DF06D090E006E09028
:10474000E106F090E2068091D406813069F5C1144B
:10475000D104E104F10409F443C08091D306882315
:10476000D1F1E091E706F091E806309739F08091B9
:10477000E9069091EA06009761F1099583ED96E0CC
:104780000E9420101C141D041E041F046CF481E000
:10479000C81AD108E108F108C092DF06D092E006FD
:1047A000E092E106F092E206FF91EF91BF91AF91A6
:1047B0009F918F917F916F915F914F913F912F9139
:1047C000FF90EF90DF90CF900F900FBE0F901F9053
:1047D00018950995D3CF83ED96E00E945B10E4CF46
:1047E00083ED96E00E94CD0FDFCFEF92FF920F9303
:1047F0001F93CF93DF93F82E192FE62E042F81E01D
:10480000860F880F0E94C30883E00E94C308CF2D43
:10481000D12FEC0EFD2EF11CCE15DF05B9F007FFF0
:1048200013C0FE0184910E94C308182F80E00E94EB
:10483000C308812321968111EFCFDF91CF911F9182
:104840000F91FF90EF9008958881EDCF81E0F5CF33
:10485000E8E4F6E01382128288EE93E0A0E0B0E094
:1048600084839583A683B7832EE531E0318320834B
:104870002FEF3FEF35872487E8E9F6E013821282B5
:1048800084839583A683B78380E791E091838083B7
:10489000E4EAF6E0138212821286148613861586E5
:1048A00081E0868722E831E031832083E3EDF6E082
:1048B0008183108A118A128A138A158A148A178AA8
:1048C000168A108221E030E033832283148215821D
:1048D0001682178210861186128613868FEF9FEF3D
:1048E000DC0184879587A687B787EBEBF6E043E08A
:1048F0004183108A118A128A138A158A148A178AA8
:10490000168A1082338322831482158216821782BC
:10491000108611861286138684879587A687B787A7
:1049200080E991E09093B6068093B5060895CF9301
:10493000DF9300D000D0CDB7DEB7789484B5826025
:1049400084BD84B5816084BD85B5826085BD85B533
:10495000816085BD80916E00816080936E001092B1
:10496000810080918100826080938100809181002C
:1049700081608093810080918000816080938000BD
:10498000809191008260809391008091910081607C
:10499000809391008091900081608093900080913D
:1049A000C10084608093C1008091C10082608093C7
:1049B000C1008091C10081608093C1008091C300DB
:1049C00081608093C3008091C00082608093C000AA
:1049D0008091C20081608093C20080917A008460DF
:1049E00080937A0080917A00826080937A0080912F
:1049F0007A00816080937A0080917A008068809349
:104A00007A001092BF051092120510921105809144
:104A1000D70081608093D70080EA8093D80089B561
:104A2000806189BD89B5826089BD09B400FEFDCF72
:104A300061E070E080E090E00E948B088091D800F7
:104A40008F7C80618093D8008091E000807F80938C
:104A5000E0008091E1008E7E8093E1008DE0809304
:104A6000E200559A209A5D9828980FB6F894A89578
:104A700080916000886180936000109260000FBE9A
:104A80008FEF9FEF90935506809354066091D40664
:104A900083ED96E00E94E90F2DEB38E04DEC5CECE5
:104AA0006CE47EE383ED96E00E9428056091BC06ED
:104AB0008BEB96E00E94E90F28EF3CE040E050E0ED
:104AC00068EC72E48BEB96E00E94280561E088E0D8
:104AD0000E94350861E08CE00E94350861E082E1C7
:104AE0000E94350861E083E10E94350861E087E0BB
:104AF0000E94350861E08DE00E94350861E084E1A4
:104B00000E94350861E085E10E94350861E081E19D
:104B10000E94350861E08EE00E94350861E080E186
:104B20000E94350860E08BE00E9435086AE070E082
:104B300080E090E00E948B0860E08CE00E94C40757
:104B400060E08DE00E94C4076AE070E080E090E0E1
:104B50000E948B0860E083E10E94C40760E082E16C
:104B60000E94C40760E085E10E94C40760E084E120
:104B70000E94C40761E08BE00E94C4070E94CC1928
:104B800061E087E00E94350857985F9A5E9A2C9AF8
:104B90008E98479A769A8C986AE070E080E090E070
:104BA0000E948B080E94A5118098889A8198899A02
:104BB0003E98469A0E94F80C1092200580911F059D
:104BC000811124C0E3E5F9E09F01285439403A837C
:104BD00029832C30310534F031978491807C8038E2
:104BE000D9F3F2CF89819A8199279A838983AC017D
:104BF00068E479E083E195E00E94BB2FA981BA8146
:104C0000AD5EBA4F1C9283E080932A0127982F9AB9
:104C10000E94540F8093A40557985F9A10924A05FA
:104C200004E010E022242394312C2091A705309138
:104C3000A80580918400909185009093A8058093A9
:104C4000A7058217930708F40197821B930B909393
:104C5000A6058093A5058091A5059091A6058938A4
:104C6000934130F0E8E8F3E1F093A605E093A50561
:104C70000E94540F8093A405882351F02091A2052F
:104C80003091A305232B21F01092A3051092A205C9
:104C9000E091A205F091A305E730F10510F00C9426
:104CA000382EEB5AF94D0C9459305C26D728ED2A52
:104CB000FF2D2B2E142FB42F209145053091460542
:104CC0004091A5055091A605240F351F3093460548
:104CD00020934505293B3B4050F120911A0130912A
:104CE0001B01882309F4FDC080914905882339F10F
:104CF0001092490530921B0120921A010E941B0F4D
:104D000066E072E088E496E00E9465151092A305C3
:104D10001092A20580912B0590912C0501968D3261
:104D200021E09207E4F490932C0580932B0580E01A
:104D300090E0892B09F479CF0E94000071CF232BDA
:104D400029F730921B0120921A010E941B0F66E383
:104D500072E088E496E00E9465155F98D7CF1092C4
:104D60002C0510922B0580912B0190912C01855FD1
:104D7000974109F056C080913506909136062091F2
:104D8000290530912A05821B930B181619060CF081
:104D900056C080912705909128050196909328058B
:104DA000809327050297ACF180916A0590916B057D
:104DB000A0916C05B0916D050797A105B10564F050
:104DC00086E090E0A0E0B0E080936A0590936B05E8
:104DD000A0936C05B0936D0580916A0590916B0569
:104DE000A0916C05B0916D050196A11DB11D809338
:104DF000660590936705A0936805B09369050E94C6
:104E00007B1510926305109262051092280510928E
:104E10002705809135069091360690932A05809358
:104E200029058091210590912205019686309105F2
:104E30000CF050C0909322058093210578CF892BE8
:104E400041F38091270590912805019790932805BB
:104E5000809327058F3F9F4FE4F680916A059091DC
:104E60006B05A0916C05B0916D05181619061A0610
:104E70001B0664F081E090E0A0E0B0E080936A055A
:104E800090936B05A0936C05B0936D05C0906A0577
:104E9000D0906B05E0906C05F0906D05A0E4BFE14B
:104EA000A70196010E945F3060932305709324054B
:104EB000809325059093260591E0C91AD108E10851
:104EC000F108C0926605D0926705E0926805F092FD
:104ED000690595CF10922205109221050E945B0D65
:104EE00026CF2130310509F04AC010921B011092E3
:104EF0001A0157985F9A6FE772E088E496E00E9483
:104F0000651562E370E080E090E00E948B0880917C
:104F10002B0590912C0501968D32A1E09A0794F50E
:104F200090932C0580932B05809145059091460523
:104F3000885B9B40909346058093450589B190E03E
:104F4000880F892F881F990B282F217020933105F6
:104F50002091390530913A05892B09F4DCC02F5F87
:104F60003F4F2133A5E73A0708F0CEC030933A050A
:104F7000209339051092380510923705D8CE5798EE
:104F80005F9AC5CF10922C0510922B0580912B01B2
:104F900090912C01855F974109F056C080913506AC
:104FA000909136062091290530912A05821B930B9A
:104FB000181619060CF056C0809127059091280507
:104FC000019690932805809327050297ACF1809174
:104FD0006A0590916B05A0916C05B0916D050797DE
:104FE000A105B10564F086E090E0A0E0B0E0809318
:104FF0006A0590936B05A0936C05B0936D05809145
:105000006A0590916B05A0916C05B0916D050196B4
:10501000A11DB11D8093660590936705A093680557
:10502000B09369050E947B1510926305109262058A
:10503000109228051092270580913506909136062A
:1050400090932A058093290580912105909122054E
:105050000196863091050CF050C090932205809304
:10506000210562CF892B41F3809127059091280576
:10507000019790932805809327058F3F9F4FE4F673
:1050800080916A0590916B05A0916C05B0916D05BA
:10509000181619061A061B0664F081E090E0A0E0DD
:1050A000B0E080936A0590936B05A0936C05B09374
:1050B0006D05C0906A05D0906B05E0906C05F0908E
:1050C0006D05A0E4BFE1A70196010E945F306093E7
:1050D000230570932405809325059093260591E080
:1050E000C91AD108E108F108C0926605D092670597
:1050F000E0926805F092690595CF10922205109212
:1051000021050E945B0D10CF80E29EE490933A054A
:10511000809339052FCF80913705909138050196FE
:105120008133B5E79B07C8F4909338058093370522
:1051300030933C0520933B0510923A0510923905B7
:10514000809147059091480501968739910544F46F
:105150009093480580934705EACD80E29EE4E4CF32
:10516000109248051092470510923C0510923B059D
:10517000109238051092370557985F9A3092A30520
:105180002092A2056EE972E088E496E00E9479150B
:105190001092410510924205109243051092440569
:1051A000E0E3F5E7F0931D01E0931C01C0CD2091F1
:1051B0004505309146058091A5059091A605820F81
:1051C000931F9093460580934505893BFBE09F071D
:1051D00008F4ADCD409141055091420560914305E1
:1051E000709144054F5F5F4F6F4F7F4F4093410574
:1051F000509342056093430570934405C0901C0191
:10520000D0901D010D2C000CEE08FF0820914A05DE
:1052100021113DC0C416D506E606F7060CF06FC096
:1052200057985F9A1092A3051092A20510923D051F
:1052300010923E0510923F051092400510923C05D9
:1052400010923B0510923A051092390510923805DC
:1052500010923705109233051092340510923505DF
:1052600010923605109241051092420510924305A6
:10527000109244051092320520E43CE930931D0160
:1052800020931C01109248051092470550CDC4167A
:10529000D506E606F7069CF557985F9A1092A30587
:1052A0001092A20510923D0510923E0510923F0506
:1052B0001092400510923C0510923B0510923A0561
:1052C0001092390510923805109237051092330567
:1052D0001092340510923505109236051092410552
:1052E0001092420510924305109244051092320527
:1052F00080E49CE990931D0180931C01C3CF885BDF
:105300009B40909346058093450589B190E0880FB6
:10531000892F881F990B282F217020933105209108
:10532000390530913A05892B09F42AC12F5F3F4F87
:10533000213395E7390708F01CC130933A052093D3
:105340003905109238051092370520913B053091B0
:105350003C05121613060CF0EACC8091320581113F
:1053600009C081E08093320588E893E190931D01A4
:1053700080931C018091330590913405A0913505EF
:10538000B09136052932310504F140913D05509127
:105390003E0560913F0570914005C12CD12C7601EE
:1053A000C394082E04C0CC0CDD1CEE1CFF1C0A9418
:1053B000D2F74C295D296E297F2940933D055093F2
:1053C0003E0560933F057093400510923C05109296
:1053D0003B050196A11DB11D8093330590933405C3
:1053E000A0933505B0933605109241051092420501
:1053F00010924305109244058097A105B10509F06C
:1054000096CC10923205A0E3B5E7B0931D01A093AE
:105410001C0180913D0590913E05A0913F05B09102
:1054200040059C0133273093710520937005492F67
:105430005A2F6B2F772767FD7A9550936F0540930E
:105440006E058B2F9927AA27BB2780932D05909354
:105450002E05A0932F05B093300569EA72E088E429
:1054600096E00E94651560EB72E088E496E00E9489
:10547000791580916E0590916F050E94511580916C
:105480003D0590913E050E94511540903D0550907C
:105490003E0560903F05709040057724812C912C4B
:1054A0005401C12CD12C7601A3019201082C04C017
:1054B00055954795379527950A94D2F7217033274C
:1054C00044275527C501B4010E94E02F660F771FBE
:1054D000881F991FC60ED71EE81EF91EBFEF8B1A34
:1054E0009B0AAB0ABB0AE8E18E169104A104B10441
:1054F000D9F6DD24EE24FF2480912D0590912E0510
:10550000A0912F05B0913005C816D906EA06FB0612
:1055100009F053C01092920560EC72E088E496E0C6
:105520000E94651522E030E03093A3052093A20588
:10553000109248051092470510923D0510923E05C5
:1055400010923F051092400510923C0510923B05C9
:1055500010923A05109239051092380510923705CD
:1055600010923305109234051092350510923605CD
:10557000DECBA8EAB1E6B0933A05A0933905E1CEB7
:10558000809137059091380501968133B5E79B07E7
:1055900068F4909338058093370530933C05209349
:1055A0003B0510923A0510923905CFCEE8EAF1E6B4
:1055B000F0933805E0933705F0CF81E080939205B2
:1055C0006FEC72E088E496E00E9465150E941B0F64
:1055D0001093A3050093A205ABCF80917005909125
:1055E00071058132910509F07DC062EF72E088E4B7
:1055F00096E00E94791560918805709189058091E7
:105600008A0590918B050E94211540908805509045
:10561000890560908A0570908B05C12CD12C76018C
:10562000812C912C5401D301C201BB2789839A8319
:10563000AB83BC8329813A814B815C81082C04C0F7
:1056400055954795379527950A94D2F721703327BA
:1056500044275527C501B4010E94E02F660F771F2C
:10566000881F991FC60ED71EE81EF91E9FEF891AC4
:10567000990AA90AB90AA8E18A169104A104B104F9
:10568000C9F6FC2CEE24DD24CC244C285D286E28A1
:105690007F284092970550929805609299057092E4
:1056A0009A0581E080939F051092930510929405CE
:1056B00010929505109296050E94F00E5F98E5E015
:1056C000F0E0F093A305E093A2056BEF72E088E4AD
:1056D00096E00E94791568EC70E080E090E00E940E
:1056E0008B0825CB8138910509F04BC180916E055F
:1056F00090916F05B0E0A0E040916A0550916B0574
:1057000060916C0570916D0584179507A607B70722
:1057100009F423C18093660590936705A0936805FB
:10572000B0936905209164053091650528303105F5
:105730007CF1892B8A2B8B2B59F1109266051092E4
:105740006705109268051092690510926505109220
:1057500064050E947B1580916E0590916F05B0E005
:10576000A0E08093660590936705A0936805B093C9
:105770006905809162059091630501979093630597
:105780008093620568EC70E080E090E00E948B08F6
:105790000E947B158E9A809161058823E1F06091CB
:1057A0002601709127018091280190912901982F5D
:1057B000872F762F6627662799276368609397055A
:1057C000709398058093990590939A050E94900F85
:1057D000109261051FC0809160058823F1F06091EF
:1057E0002201709123018091240190912501982F2D
:1057F000872F762F66276627992764686093970519
:10580000709398058093990590939A050E94900F44
:10581000109260050E941B0F21C180915F058823B3
:10582000E1F060915B0570915C0580915D05909160
:105830005E05982F872F762F66276627992765683C
:1058400060939705709398058093990590939A05B6
:105850000E94900F10925F05DDCF80915A0588233A
:10586000E1F060911E0170911F01809120019091E3
:105870002101982F872F762F66276627992766683C
:1058800060939705709398058093990590939A0576
:105890000E94900F10925A05BDCF80915905882320
:1058A000E1F06091550570915605809157059091F2
:1058B0005805982F872F762F6627662799276768C0
:1058C00060939705709398058093990590939A0536
:1058D0000E94900F109259059DCF80915405882306
:1058E000E1F06091500570915105809152059091C1
:1058F0005305982F872F762F662766279927686884
:1059000060939705709398058093990590939A05F5
:105910000E94900F109254057DCF80914F058823EF
:10592000E9F060914B0570914C0580914D05909187
:105930004E05982F872F762F662766279927696847
:1059400060939705709398058093990590939A05B5
:105950000E94900F10924F055DCF2C9A8BE190E042
:10596000A0E0B0E08093970590939805A0939905E7
:10597000B0939A056BE170E080E090E00E94900F98
:1059800049CF8F379105D9F581E0809361058093E8
:10599000600580935F0580935A0580935905809335
:1059A0005405109263051092620580934A05809316
:1059B00049051092920580916E0590916F05B0E0B7
:1059C000A0E040916A0550916B0560916C05709163
:1059D0006D0584179507A607B70751F080936605F4
:1059E00090936705A0936805B09369050E947B15A5
:1059F0002C9A80916105882309F40CCFD0CE82388F
:105A0000910509F0F5C068EC70E080E090E00E943C
:105A10008B0880916105882331F164E073E088E4AC
:105A200096E00E9465156091260170912701809192
:105A3000280190912901982F872F762F66276627B6
:105A400099276368609397057093980580939905EB
:105A500090939A050E94900F109261051093A305F0
:105A60000093A20564C980916005882311F169E261
:105A700073E088E496E00E946515609122017091C0
:105A800023018091240190912501982F872F762F53
:105A90006627662799276468609397057093980531
:105AA0008093990590939A050E94900F109260053B
:105AB000D5CF80915F05882311F16EE473E088E40F
:105AC00096E00E94651560915B0570915C05809180
:105AD0005D0590915E05982F872F762F66276627A4
